:02000002D0002C
:1040000000400D0084500D00000006000C0005016A
:084010000401BD0B00000000DB
:04401800404E0D0009
:10401C0009480A49884208B505D0094A824202D0AB
:10402C00121A00F0C5FE0748074A0021121A00F0C8
:10403C00CDFE014808BD00BFD8E50320F44F0D00AC
:10404C0040E6032040E60320F0E7032070B5074E5E
:10405C00074C00F0D3FDA41BA4080025A54200D1F9
:10406C0070BD56F8043B98470135F7E7C84F0D0073
:10407C00E84F0D0000F013B808B500F014F8BDE8D7
:10408C00084000F07DBD00F08BB900F091B90078CC
:10409C00B0FA80F04009704701230370704700218B
:1040AC00082000F01BBE704708B5024B1B685B6C08
:1040BC00019308BD4802030008B5024B1B689B6CBA
:1040CC00019308BD4802030008B5024B1B685B68EE
:1040DC00019308BD1802030008B5024B1B685B690D
:1040EC00019308BD1802030008B5024B1B689B68BE
:1040FC00019308BD2C02030008B5024B1B681B6A18
:10410C00019308BD2802030008B5024B1B685B6ACB
:10411C00019308BD2802030008B5024B1B689B6A7B
:10412C00019308BD2802030008B5024B1B68DB6A2B
:10413C00019308BD2802030008B5024B1B681B6BDA
:10414C00019308BD2802030008B5024B1B685B6B8A
:10415C00019308BD2802030008B5024B1B681B6CB9
:10416C00019308BD2802030008B5024B1B685B696C
:10417C00019308BD6402030008B5024B1B689B68E1
:10418C00019308BD6802030008B5024B1B68DB688D
:10419C00019308BD6802030008B5024B1B68DB697C
:1041AC00019308BD3002030008B5024B1B681B6A63
:1041BC00019308BD3002030008B5024B1B681B6855
:1041CC00019308BD3C02030008B5024B1B68DB6879
:1041DC00019308BD3C02030008B5024B1B681B6928
:1041EC00019308BD3C02030008B5024B1B685B69D8
:1041FC00019308BD3C02030008B5024B1B689B6988
:10420C00019308BD3C02030008B5024B1B68DB6937
:10421C00019308BD3C02030008B5024B1B681B6AE6
:10422C00019308BD3C02030008B5024B1B689B6A56
:10423C00019308BD3C02030008B5024B1B681B68C8
:10424C00019308BD4C02030008B5024B1B681B69A7
:10425C00019308BD4C02030008B5024B1B685B6957
:10426C00019308BD4C02030008B5024B1B689B6907
:10427C00019308BD4C02030008B5024B1B68DB69B7
:10428C00019308BD4C02030008B5024B1B681B6A66
:10429C00019308BD4C02030008B5024B1B685B6818
:1042AC00019308BD2002030008B5034B1B68D3F82B
:1042BC008830019308BD00002002030008B5034BB1
:1042CC001B68D3F89430019308BD00002002030052
:1042DC0008B5024B1B68DB6B019308BD440203005D
:1042EC0008B5024B1B685B68019308BD40020300D4
:1042FC0008B5024B1B689B68019308BD4002030084
:10430C0008B5024B1B68DB68019308BD4002030033
:10431C0008B5024B1B681B69019308BD40020300E2
:10432C0008B5024B1B685B69019308BD4002030092
:10433C0008B5024B1B689B69019308BD4002030042
:10434C0008B5024B1B68DB69019308BD40020300F2
:10435C0008B5024B1B681B6A019308BD40020300A1
:10436C0008B5024B1B681B6B019308BD4002030090
:10437C0008B5024B1B685B6B019308BD4002030040
:10438C0008B5024B1B681B6C019308BD400203006F
:10439C0008B5024B1B685B6C019308BD400203001F
:1043AC0008B5024B1B681B68019308BD1C02030077
:1043BC0008B5024B1B685B68019308BD1C02030027
:1043CC0008B5024B1B685B6C019308BD1C02030013
:1043DC0010B50446006808B1FFF76EFE204610BD0C
:1043EC0010B58368044613B1032201469847204652
:1043FC0010BD000010B5064C002320462360FFF7CB
:10440C0053FE2046034A0449BDE8104000F0B8BCF6
:10441C0044E6032040E60320DD430D000022406803
:10442C001146FFF795BF002240681146FFF7A0BF69
:10443C0040680022FFF794BF4068002281F0010120
:10444C00FFF77EBF002340681A461946FFF770BF7E
:10445C00002340681A461946FFF762BF00224068E5
:10446C001146FFF755BF002240681146FFF740BFC9
:10447C00406800220221FFF743BF002340681A4620
:10448C00FFF72EBF024B03225A60024A1A60704794
:10449C0048E603205C4E0D007047F8B506461546FD
:1044AC000C468F18BC4206D0336814F8011B9B686D
:1044BC0030469847F6E72846F8BD007C0022FFF707
:1044CC001BBE007C0021FFF71FBE007C0021FFF704
:1044DC0023BE007C0021FFF727BE007C0021FFF7E4
:1044EC002BBE10B51421044600F04FFC204610BD25
:1044FC0010B54FF47A73044608460021C4E9011341
:10450C00034B236020741146FFF726FE204610BD96
:10451C00984E0D00704710B51821044600F035FC7C
:10452C00204610BDF0B5037D062B8DB00E4600F174
:10453C0004074FF0000412D000F1080515F8011D16
:10454C000A22304600F045F9AF42044419D0002C41
:10455C00F4D02E21304600F039F90444EEE72F2335
:10456C006A4639460A208DF80040FFF7FDFD684683
:10457C0000F058FC33680246DB68694630469847C1
:10458C00044620460DB0F0BD10B5054B0446112273
:10459C0040F8043B002100F019FC204610BD00BF80
:1045AC00C04E0D000346074A10B543F8042B01F129
:1045BC00100251F8044B43F8044B9142F9D10A789C
:1045CC001A7010BDC04E0D0010B59DF8084044EA9D
:1045DC00032343EA024242EA01610423416003756A
:1045EC0010BD000013B5054B0360CB7800938B789E
:1045FC004A780978FFF7E8FF02B010BDC04E0D00F5
:10460C00014B024A1A60704750E60320CC4E0D0055
:10461C00002340681A46FFF763BE4068002202215F
:10462C00FFF76EBE002240681146FFF761BE002204
:10463C0040681146FFF76CBE002340681A461946C5
:10464C00FFF76EBE002340681A461946FFF770BE8E
:10465C0040680021FFF794BE40680021FFF798BE28
:10466C004068002281F00101FFF76ABE4068002219
:10467C00FFF776BE002240681146FFF779BE002294
:10468C0040681146FFF764BE2DE9F043002495B055
:10469C0016460D460746FFF777FF214618220EA84F
:1046AC00009400F093FB4023CDE90C3421466B467B
:1046BC000CAA3046FFF768FD044600284CD1024690
:1046CC0001216868FFF724FE0221804622466868B3
:1046DC00FFF71EFE009E81462146002E3CD000298D
:1046EC003AD17368022B03D00A2B11D0F669F4E788
:1046FC00B8F1000F0AD0716906A8043107ADFFF7B5
:10470C0071FF0FCD3C1D0FC42B6823704146EDE7A4
:10471C00B9F1000F01D14946E8E77469102201A8EC
:10472C0000F054FB06238DF8143001AD04F108039E
:10473C001834186859682A4603C20833A342154630
:10474C00F7D101A906A807ADFFF72CFF0FCD3C1D33
:10475C000FC42B682370DEE70098FFF70DFD384679
:10476C0015B0BDE8F0830000024B034A1A6000222A
:10477C005A60704754E60320D84E0D00F8B5064633
:10478C000D468F180024BD420CD0336815F8011B60
:10479C009B6830469847031E01DB1C44F3E7002C52
:1047AC0008BF1C462046F8BD13B50446084659B14F
:1047BC00019100F037FB23680199DB680246204623
:1047CC0002B0BDE81040184702B010BD03689B68EA
:1047DC00184730B58BB000238DF82430012A98BFD0
:1047EC000A2209AC0D46B1FBF2F101FB125303F0A6
:1047FC00FF03092B94BF30333733DBB2AA4204F8E2
:10480C00013DEFD92146FFF7CFFF0BB030BD10B5FE
:10481C000446FFF7E5FD204610BD00000348044A9E
:10482C0004490023836000F0ABBA00BF5CE60320B0
:10483C0040E603201B480D0010B5044608462170C5
:10484C00FFF7AAFC00236360204610BD10B5044698
:10485C00006818B1FFF7ACFD0023236010BD10B544
:10486C000446FFF7F3FF204610BD000010B5094BBE
:10487C00094C022200201A60084B2060A080A07115
:10488C00A360FFF709FD2046054A0649BDE8104024
:10489C0000F076BA78E603206CE603200000FFFFF8
:1048AC0040E603206B480D00024B1A68024B1A605D
:1048BC00704700BFD8E503207CE6032070474174A5
:1048CC00704708B5007CFFF7AFFC20EAE07008BD2C
:1048DC0008B5007CFFF780FC20EAE07008BD08B545
:1048EC00007CFFF789FC40EAE07008BD08B5007C4D
:1048FC00FFF77AFC40EAE07008BD007CFFF784BC4F
:10490C0037B5457C04462DB1207C03B0BDE8304062
:10491C00FFF75ABC007C0191FFF786FC0028019937
:10492C00F2DC284603B030BD10B51421044600F06B
:10493C002CFA204610BD000010B54FF0000C0446B8
:10494C00084611464FF47A72C4E901C2044A226047
:10495C000122207462741A46FFF72EFC204610BD0B
:10496C00304F0D0013B50E4C2178BFF35B8F11F057
:10497C00010112D120460191FFF789FB019960B129
:10498C00084A094B0948FFF7D7FF2046FFF784FB7D
:10499C00074A0849054800F0F3F9044802B010BD75
:1049AC0080E6032084E6032008E703208CE703203D
:1049BC0040E60320C9480D0041747047704708B5A4
:1049CC000021007CFFF750FC40EAE07008BD08B500
:1049DC000121007CFFF748FC40EAE07008BD08B5F7
:1049EC00007CFFF739FC20EAE07008BD08B5007CBC
:1049FC00FFF72AFC20EAE07008BD13B50446007CE2
:104A0C000191FFF729FC0028019901DC607C20B1A1
:104A1C00207CFFF731FC20EAE07002B010BD007C76
:104A2C00FFF732BC10B51421044600F0AEF9204655
:104A3C0010BD000010B54FF47A73044608460021EF
:104A4C00C4E90113044B23600123207463741146E1
:104A5C00FFF7F2FB204610BD604F0D0010B514227D
:104A6C000446002100F0B2F9204610BD10B5104CE0
:104A7C0088B003A8FFF7F2FF2178BFF35B8F11F02A
:104A8C00010111D120460191FFF701FB019958B1A9
:104A9C0003AA0848FFF7CEFF2046FFF7FDFA064AA7
:104AAC000649044800F06CF9024808B010BD00BF7C
:104ABC00A0E70320A4E7032040E60320C9490D002A
:104ACC00002240681146FFF723BC002240681146C3
:104ADC00FFF73EBC002240681146FFF749BC406816
:104AEC000022FFF73DBC4068002281F00101FFF776
:104AFC0027BC002340681A461946FFF719BC00234F
:104B0C0040681A461946FFF70BBC00224068114654
:104B1C00FFF7EEBB406800220221FFF7F1BB002338
:104B2C0040681A46FFF7DCBB024B04225A60024A6B
:104B3C001A607047B8E70320904F0D00014B1860C6
:104B4C00704700BFDCE5032008B50B4B43B1FFF702
:104B5C008DFF03681B699847002801DDAFF30080C7
:104B6C00064B43B1FFF7FEFE03681B69984700280C
:104B7C0001DDAFF3008008BD000000000000000064
:104B8C0008B5FFF7E1FFFFF7A7FA014B186008BD66
:104B9C00D4E703200248034A0349121A00F008B96B
:104BAC0000F4032004F40320F04F0D0007B500239C
:104BBC0000931A466FF07701FFF780FB03B05DF8A6
:104BCC0004FB000007B543880A2B08D0502B0BD1EF
:104BDC00094B1B684BB103B05DF804EB1847FFF7AA
:104BEC00E5FF03B05DF804FB002300931A466FF059
:104BFC007701FFF763FBF4E7C4E7032038B5124CE9
:104C0C001248134D0021FFF7DBFB2368AB42114B1D
:104C1C000CBF012200221A7002D0FFF7BBFF2560E7
:104C2C00FFF752FA044600F0D9F80B4B13B12046AB
:104C3C00AFF3008000210848FFF74AFBBDE838407D
:104C4C0006480021FFF730BB00F40320494B0D0050
:104C5C001E1C279AC0E7032000000000D14B0D005A
:104C6C00232813B502D9002002B010BDA0F10B030C
:104C7C00022B1AD8174C2178BFF35B8F11F001016E
:104C8C000BD120460191FFF702FA019928B1124885
:104C9C00FFF7D2FD2046FFF7FFF90F4B1878FFF70F
:104CAC0083FA0028DFD10120DEE7012809D800F0C3
:104CBC003FF80021007CFFF747FA80F00100C0B2FA
:104CCC00D2E709380128EED8FFF74CFE007CFFF73D
:104CDC00A3FAF2E7C8E70320CCE70320232838B572
:104CEC0004460D460AD8FF2908D0FFF7B9FF28B1B2
:104CFC0029462046BDE83840FFF7F6B938BD00001C
:104D0C0038B5002320254380142304460380856096
:104D1C0005610649284600F03AF8044960602846C7
:104D2C0000F035F8E060204638BD00BFC44F0D00E0
:104D3C0030B50F4D2978BFF35B8F11F0010487B0AC
:104D4C0013D12846FFF7A3F978B101A8FFF7D8FFD4
:104D5C0001AA21460748FFF7CBFB2846FFF79CF931
:104D6C00054A0649034800F00BF8024807B030BD6D
:104D7C00D8E70320DCE7032040E60320A5440D0020
:104D8C000B460146184600F005B8FFF77EB9FFF751
:104D9C007AB9000010B5054C13462CB10A460146F1
:104DAC000220AFF3008010BD2046FCE7000000009D
:104DBC000A44914200F1FF3300D1704710B511F84D
:104DCC00014B03F8014F9142F9D110BD0244034647
:104DDC00934200D1704703F8011BF9E738B50D4B2E
:104DEC001D68AB6B04467BB91820FFF7D9FA0A4A49
:104DFC000A4BA863C0E90023094B83600B23838112
:104E0C0001220023C0E90423AB6B00221C615A6110
:104E1C0038BD00BFDCE503200E33CDAB34126DE69C
:104E2C00ECDE0500034613F8012B002AFBD1181AFF
:104E3C00013870471D400D0059400D0081400D0098
:104E4C0085400D0000000000000000000000000084
:104E5C0087440D007D440D0073440D0069440D0022
:104E6C005D440D0051440D005D460D0065460D007E
:104E7C0045440D003D440D0033440D0029440D0004
:104E8C0095460D000000000000000000A5440D0038
:104E9C00EF440D00C7440D00A7440D00CF440D0096
:104EAC00D7440D00DF440D00E7440D000000000066
:104EBC000000000031450D0021450D0023450D007B
:104ECC006170700000000000000000001D460D0025
:104EDC0027460D0031460D003B460D0045460D00A2
:104EEC0051460D005D460D0065460D006D460D00EA
:104EFC0079460D0081460D008B460D0095460D0040
:104F0C0025592D256D2D25645425483A254D3A25D6
:104F1C0053257A0061736374696D650000000000AD
:104F2C0000000000C9480D0035490D000D490D0069
:104F3C0089470D00DD480D00F9480D00EB480D00C8
:104F4C0007490D00CB480D00CF480D0000000000B4
:104F5C0000000000C9490D00314A0D00074A0D0040
:104F6C0089470D00F9490D00CB490D00DB490D00B7
:104F7C002B4A0D00EB490D00C5490D000000000047
:104F8C00000000002B4B0D00214B0D00174B0D00AA
:104F9C00CD4A0D000B4B0D00FF4A0D005D460D0078
:104FAC0065460D00F34A0D00EB4A0D00E14A0D0079
:104FBC00D74A0D0095460D000000000001440D007D
:104FCC0091440D000D460D0075470D0029480D004C
:104FDC0079480D00B5480D00354B0D000000000060
:044FEC0000000000C1
:044FF00000000000BD
:104FF400204F0D00E0E50320000000000000000049
:10500400000000000000000000000000000000009C
:10501400000000000000000000000000000000008C
:10502400000000000000000000000000000000007C
:10503400000000000000000000000000000000006C
:10504400000000000000000000000000000000005C
:08505400000000000000000054
:10505C00FFFFFFFF00000102030405060708090A11
:10506C000B0C0D0E0F101112131415161718191A0C
:08507C001B1C1D1E1F20280053
:045084007856341214
:04000003D000401CCD
:00000001FF
